{
  "_format": "hh-sol-artifact-1",
  "contractName": "PerpetualPoolRouter",
  "sourceName": "contracts/pool/PerpetualPoolRouter.sol",
  "abi": [
    {
      "inputs": [
        {
          "internalType": "address",
          "name": "lTokenAddress",
          "type": "address"
        },
        {
          "internalType": "address",
          "name": "pTokenAddress",
          "type": "address"
        },
        {
          "internalType": "address",
          "name": "liquidatorQualifierAddress",
          "type": "address"
        }
      ],
      "stateMutability": "nonpayable",
      "type": "constructor"
    },
    {
      "anonymous": false,
      "inputs": [
        {
          "indexed": false,
          "internalType": "uint256",
          "name": "migrationTimestamp",
          "type": "uint256"
        },
        {
          "indexed": false,
          "internalType": "address",
          "name": "source",
          "type": "address"
        },
        {
          "indexed": false,
          "internalType": "address",
          "name": "target",
          "type": "address"
        }
      ],
      "name": "ExecuteMigration",
      "type": "event"
    },
    {
      "anonymous": false,
      "inputs": [
        {
          "indexed": false,
          "internalType": "uint256",
          "name": "migrationTimestamp",
          "type": "uint256"
        },
        {
          "indexed": false,
          "internalType": "address",
          "name": "source",
          "type": "address"
        },
        {
          "indexed": false,
          "internalType": "address",
          "name": "target",
          "type": "address"
        }
      ],
      "name": "PrepareMigration",
      "type": "event"
    },
    {
      "inputs": [
        {
          "internalType": "address",
          "name": "bTokenAddress",
          "type": "address"
        },
        {
          "internalType": "address",
          "name": "swapperAddress",
          "type": "address"
        },
        {
          "internalType": "address",
          "name": "oracleAddress",
          "type": "address"
        },
        {
          "internalType": "uint256",
          "name": "discount",
          "type": "uint256"
        }
      ],
      "name": "addBToken",
      "outputs": [],
      "stateMutability": "nonpayable",
      "type": "function"
    },
    {
      "inputs": [
        {
          "internalType": "uint256",
          "name": "bTokenId",
          "type": "uint256"
        },
        {
          "internalType": "uint256",
          "name": "bAmount",
          "type": "uint256"
        }
      ],
      "name": "addLiquidity",
      "outputs": [],
      "stateMutability": "nonpayable",
      "type": "function"
    },
    {
      "inputs": [
        {
          "internalType": "uint256",
          "name": "bTokenId",
          "type": "uint256"
        },
        {
          "internalType": "uint256",
          "name": "bAmount",
          "type": "uint256"
        },
        {
          "components": [
            {
              "internalType": "uint256",
              "name": "symbolId",
              "type": "uint256"
            },
            {
              "internalType": "uint256",
              "name": "timestamp",
              "type": "uint256"
            },
            {
              "internalType": "uint256",
              "name": "price",
              "type": "uint256"
            },
            {
              "internalType": "uint8",
              "name": "v",
              "type": "uint8"
            },
            {
              "internalType": "bytes32",
              "name": "r",
              "type": "bytes32"
            },
            {
              "internalType": "bytes32",
              "name": "s",
              "type": "bytes32"
            }
          ],
          "internalType": "struct IPerpetualPoolRouter.PriceInfo[]",
          "name": "infos",
          "type": "tuple[]"
        }
      ],
      "name": "addLiquidityWithPrices",
      "outputs": [],
      "stateMutability": "nonpayable",
      "type": "function"
    },
    {
      "inputs": [
        {
          "internalType": "uint256",
          "name": "bTokenId",
          "type": "uint256"
        },
        {
          "internalType": "uint256",
          "name": "bAmount",
          "type": "uint256"
        }
      ],
      "name": "addMargin",
      "outputs": [],
      "stateMutability": "nonpayable",
      "type": "function"
    },
    {
      "inputs": [
        {
          "internalType": "uint256",
          "name": "bTokenId",
          "type": "uint256"
        },
        {
          "internalType": "uint256",
          "name": "bAmount",
          "type": "uint256"
        },
        {
          "components": [
            {
              "internalType": "uint256",
              "name": "symbolId",
              "type": "uint256"
            },
            {
              "internalType": "uint256",
              "name": "timestamp",
              "type": "uint256"
            },
            {
              "internalType": "uint256",
              "name": "price",
              "type": "uint256"
            },
            {
              "internalType": "uint8",
              "name": "v",
              "type": "uint8"
            },
            {
              "internalType": "bytes32",
              "name": "r",
              "type": "bytes32"
            },
            {
              "internalType": "bytes32",
              "name": "s",
              "type": "bytes32"
            }
          ],
          "internalType": "struct IPerpetualPoolRouter.PriceInfo[]",
          "name": "infos",
          "type": "tuple[]"
        }
      ],
      "name": "addMarginWithPrices",
      "outputs": [],
      "stateMutability": "nonpayable",
      "type": "function"
    },
    {
      "inputs": [
        {
          "internalType": "string",
          "name": "symbol",
          "type": "string"
        },
        {
          "internalType": "address",
          "name": "oracleAddress",
          "type": "address"
        },
        {
          "internalType": "uint256",
          "name": "multiplier",
          "type": "uint256"
        },
        {
          "internalType": "uint256",
          "name": "feeRatio",
          "type": "uint256"
        },
        {
          "internalType": "uint256",
          "name": "fundingRateCoefficient",
          "type": "uint256"
        }
      ],
      "name": "addSymbol",
      "outputs": [],
      "stateMutability": "nonpayable",
      "type": "function"
    },
    {
      "inputs": [],
      "name": "approveMigration",
      "outputs": [],
      "stateMutability": "nonpayable",
      "type": "function"
    },
    {
      "inputs": [],
      "name": "claimNewController",
      "outputs": [],
      "stateMutability": "nonpayable",
      "type": "function"
    },
    {
      "inputs": [],
      "name": "controller",
      "outputs": [
        {
          "internalType": "address",
          "name": "",
          "type": "address"
        }
      ],
      "stateMutability": "view",
      "type": "function"
    },
    {
      "inputs": [
        {
          "internalType": "address",
          "name": "sourceRouter",
          "type": "address"
        }
      ],
      "name": "executeMigration",
      "outputs": [],
      "stateMutability": "nonpayable",
      "type": "function"
    },
    {
      "inputs": [
        {
          "internalType": "address",
          "name": "owner",
          "type": "address"
        }
      ],
      "name": "liquidate",
      "outputs": [],
      "stateMutability": "nonpayable",
      "type": "function"
    },
    {
      "inputs": [
        {
          "internalType": "address",
          "name": "owner",
          "type": "address"
        },
        {
          "components": [
            {
              "internalType": "uint256",
              "name": "symbolId",
              "type": "uint256"
            },
            {
              "internalType": "uint256",
              "name": "timestamp",
              "type": "uint256"
            },
            {
              "internalType": "uint256",
              "name": "price",
              "type": "uint256"
            },
            {
              "internalType": "uint8",
              "name": "v",
              "type": "uint8"
            },
            {
              "internalType": "bytes32",
              "name": "r",
              "type": "bytes32"
            },
            {
              "internalType": "bytes32",
              "name": "s",
              "type": "bytes32"
            }
          ],
          "internalType": "struct IPerpetualPoolRouter.PriceInfo[]",
          "name": "infos",
          "type": "tuple[]"
        }
      ],
      "name": "liquidateWithPrices",
      "outputs": [],
      "stateMutability": "nonpayable",
      "type": "function"
    },
    {
      "inputs": [],
      "name": "liquidatorQualifier",
      "outputs": [
        {
          "internalType": "address",
          "name": "",
          "type": "address"
        }
      ],
      "stateMutability": "view",
      "type": "function"
    },
    {
      "inputs": [],
      "name": "migrationDestination",
      "outputs": [
        {
          "internalType": "address",
          "name": "",
          "type": "address"
        }
      ],
      "stateMutability": "view",
      "type": "function"
    },
    {
      "inputs": [],
      "name": "migrationTimestamp",
      "outputs": [
        {
          "internalType": "uint256",
          "name": "",
          "type": "uint256"
        }
      ],
      "stateMutability": "view",
      "type": "function"
    },
    {
      "inputs": [],
      "name": "pool",
      "outputs": [
        {
          "internalType": "address",
          "name": "",
          "type": "address"
        }
      ],
      "stateMutability": "view",
      "type": "function"
    },
    {
      "inputs": [
        {
          "internalType": "address",
          "name": "target",
          "type": "address"
        },
        {
          "internalType": "uint256",
          "name": "graceDays",
          "type": "uint256"
        }
      ],
      "name": "prepareMigration",
      "outputs": [],
      "stateMutability": "nonpayable",
      "type": "function"
    },
    {
      "inputs": [
        {
          "internalType": "uint256",
          "name": "bTokenId",
          "type": "uint256"
        },
        {
          "internalType": "uint256",
          "name": "bAmount",
          "type": "uint256"
        }
      ],
      "name": "removeLiquidity",
      "outputs": [],
      "stateMutability": "nonpayable",
      "type": "function"
    },
    {
      "inputs": [
        {
          "internalType": "uint256",
          "name": "bTokenId",
          "type": "uint256"
        },
        {
          "internalType": "uint256",
          "name": "bAmount",
          "type": "uint256"
        },
        {
          "components": [
            {
              "internalType": "uint256",
              "name": "symbolId",
              "type": "uint256"
            },
            {
              "internalType": "uint256",
              "name": "timestamp",
              "type": "uint256"
            },
            {
              "internalType": "uint256",
              "name": "price",
              "type": "uint256"
            },
            {
              "internalType": "uint8",
              "name": "v",
              "type": "uint8"
            },
            {
              "internalType": "bytes32",
              "name": "r",
              "type": "bytes32"
            },
            {
              "internalType": "bytes32",
              "name": "s",
              "type": "bytes32"
            }
          ],
          "internalType": "struct IPerpetualPoolRouter.PriceInfo[]",
          "name": "infos",
          "type": "tuple[]"
        }
      ],
      "name": "removeLiquidityWithPrices",
      "outputs": [],
      "stateMutability": "nonpayable",
      "type": "function"
    },
    {
      "inputs": [
        {
          "internalType": "uint256",
          "name": "bTokenId",
          "type": "uint256"
        },
        {
          "internalType": "uint256",
          "name": "bAmount",
          "type": "uint256"
        }
      ],
      "name": "removeMargin",
      "outputs": [],
      "stateMutability": "nonpayable",
      "type": "function"
    },
    {
      "inputs": [
        {
          "internalType": "uint256",
          "name": "bTokenId",
          "type": "uint256"
        },
        {
          "internalType": "uint256",
          "name": "bAmount",
          "type": "uint256"
        },
        {
          "components": [
            {
              "internalType": "uint256",
              "name": "symbolId",
              "type": "uint256"
            },
            {
              "internalType": "uint256",
              "name": "timestamp",
              "type": "uint256"
            },
            {
              "internalType": "uint256",
              "name": "price",
              "type": "uint256"
            },
            {
              "internalType": "uint8",
              "name": "v",
              "type": "uint8"
            },
            {
              "internalType": "bytes32",
              "name": "r",
              "type": "bytes32"
            },
            {
              "internalType": "bytes32",
              "name": "s",
              "type": "bytes32"
            }
          ],
          "internalType": "struct IPerpetualPoolRouter.PriceInfo[]",
          "name": "infos",
          "type": "tuple[]"
        }
      ],
      "name": "removeMarginWithPrices",
      "outputs": [],
      "stateMutability": "nonpayable",
      "type": "function"
    },
    {
      "inputs": [
        {
          "internalType": "uint256",
          "name": "bTokenId",
          "type": "uint256"
        },
        {
          "internalType": "address",
          "name": "swapperAddress",
          "type": "address"
        },
        {
          "internalType": "address",
          "name": "oracleAddress",
          "type": "address"
        },
        {
          "internalType": "uint256",
          "name": "discount",
          "type": "uint256"
        }
      ],
      "name": "setBTokenParameters",
      "outputs": [],
      "stateMutability": "nonpayable",
      "type": "function"
    },
    {
      "inputs": [
        {
          "internalType": "address",
          "name": "qualifierAddress",
          "type": "address"
        }
      ],
      "name": "setLiquidatorQualifier",
      "outputs": [],
      "stateMutability": "nonpayable",
      "type": "function"
    },
    {
      "inputs": [
        {
          "internalType": "address",
          "name": "newController",
          "type": "address"
        }
      ],
      "name": "setNewController",
      "outputs": [],
      "stateMutability": "nonpayable",
      "type": "function"
    },
    {
      "inputs": [
        {
          "internalType": "address",
          "name": "poolAddress",
          "type": "address"
        }
      ],
      "name": "setPool",
      "outputs": [],
      "stateMutability": "nonpayable",
      "type": "function"
    },
    {
      "inputs": [
        {
          "internalType": "uint256",
          "name": "symbolId",
          "type": "uint256"
        },
        {
          "internalType": "address",
          "name": "oracleAddress",
          "type": "address"
        },
        {
          "internalType": "uint256",
          "name": "feeRatio",
          "type": "uint256"
        },
        {
          "internalType": "uint256",
          "name": "fundingRateCoefficient",
          "type": "uint256"
        }
      ],
      "name": "setSymbolParameters",
      "outputs": [],
      "stateMutability": "nonpayable",
      "type": "function"
    },
    {
      "inputs": [
        {
          "internalType": "uint256",
          "name": "symbolId",
          "type": "uint256"
        },
        {
          "internalType": "int256",
          "name": "tradeVolume",
          "type": "int256"
        }
      ],
      "name": "trade",
      "outputs": [],
      "stateMutability": "nonpayable",
      "type": "function"
    },
    {
      "inputs": [
        {
          "internalType": "uint256",
          "name": "symbolId",
          "type": "uint256"
        },
        {
          "internalType": "int256",
          "name": "tradeVolume",
          "type": "int256"
        },
        {
          "components": [
            {
              "internalType": "uint256",
              "name": "symbolId",
              "type": "uint256"
            },
            {
              "internalType": "uint256",
              "name": "timestamp",
              "type": "uint256"
            },
            {
              "internalType": "uint256",
              "name": "price",
              "type": "uint256"
            },
            {
              "internalType": "uint8",
              "name": "v",
              "type": "uint8"
            },
            {
              "internalType": "bytes32",
              "name": "r",
              "type": "bytes32"
            },
            {
              "internalType": "bytes32",
              "name": "s",
              "type": "bytes32"
            }
          ],
          "internalType": "struct IPerpetualPoolRouter.PriceInfo[]",
          "name": "infos",
          "type": "tuple[]"
        }
      ],
      "name": "tradeWithPrices",
      "outputs": [],
      "stateMutability": "nonpayable",
      "type": "function"
    }
  ],
  "bytecode": "0x60c06040523480156200001157600080fd5b506040516200273b3803806200273b83398101604081905262000034916200009c565b6001600160601b0319606093841b81166080529190921b1660a052600580546001600160a01b03929092166001600160a01b03199283161790556000805490911633179055620000e5565b80516001600160a01b03811681146200009757600080fd5b919050565b600080600060608486031215620000b1578283fd5b620000bc846200007f565b9250620000cc602085016200007f565b9150620000dc604085016200007f565b90509250925092565b60805160601c60a05160601c61261c6200011f60003960008181610495015281816108ff015261160f01526000611146015261261c6000f3fe608060405234801561001057600080fd5b50600436106101c45760003560e01c80636a4df124116100f9578063c08e512911610097578063f345807311610071578063f34580731461038e578063f3f6073c146103a1578063f77c4791146103b4578063f8bd56ec146103c557600080fd5b8063c08e512914610355578063d41194b814610368578063e7f2ee6e1461037b57600080fd5b80637b725c1e116100d35780637b725c1e146103145780638ed1fc8f1461031c5780639cd441da1461032f5780639d7de6b31461034257600080fd5b80636a4df124146102dd5780636e666b0c146102f057806379a87b191461030357600080fd5b80634b8f43811161016657806358c700a31161014057806358c700a31461029357806359baef40146102a45780635fc89e54146102b7578063677528cb146102ca57600080fd5b80634b8f43811461025a57806351dfdb481461026d57806353b27d011461028057600080fd5b80632f865568116101a25780632f86556814610219578063325564ec1461022c5780634437152a146102345780634b2960051461024757600080fd5b806303d5aed5146101c957806316f0115b146101de5780632a255ece14610208575b600080fd5b6101dc6101d73660046120f0565b6103d8565b005b6004546001600160a01b03165b6040516001600160a01b0390911681526020015b60405180910390f35b6005546001600160a01b03166101eb565b6101dc610227366004611de1565b6103f0565b6101dc610679565b6101dc610242366004611de1565b6107de565b6101dc6102553660046120f0565b61082a565b6101dc6102683660046120cf565b61083d565b6101dc61027b366004611de1565b610a03565b6101dc61028e3660046120f0565b610c99565b6002546040519081526020016101ff565b6101dc6102b2366004611de1565b610cac565b6101dc6102c5366004611de1565b610cf8565b6101dc6102d8366004611ebe565b610d44565b6101dc6102eb3660046120f0565b610ea1565b6101dc6102fe366004611e70565b610eb4565b6003546001600160a01b03166101eb565b6101dc610eca565b6101dc61032a36600461206c565b610f3f565b6101dc61033d3660046120cf565b610faf565b6101dc6103503660046120cf565b611084565b6101dc610363366004611e20565b611229565b6101dc6103763660046120cf565b611389565b6101dc610389366004612093565b6114a8565b6101dc61039c3660046120f0565b611517565b6101dc6103af3660046120cf565b61152a565b6000546001600160a01b03166101eb565b6101dc6103d3366004611f09565b6116d9565b6103e1816117ab565b6103eb838361152a565b505050565b60048054604080516310017ab960e31b815281516001600160a01b03909316936000938493869363800bd5c8938181019391829003018186803b15801561043657600080fd5b505afa15801561044a573d6000803e3d6000fd5b505050506040513d601f19601f8201168201806040525081019061046e919061213e565b604051637b51e92760e11b81526001600160a01b03878116600483015292945090925033917f0000000000000000000000000000000000000000000000000000000000000000169063f6a3d24e9060240160206040518083038186803b1580156104d757600080fd5b505afa1580156104eb573d6000803e3d6000fd5b505050506040513d601f19601f8201168201806040525081019061050f9190611ee9565b6105345760405162461bcd60e51b815260040161052b90612257565b60405180910390fd5b6005546001600160a01b031615806105c457506005546040516337c203bd60e21b81526001600160a01b0383811660048301529091169063df080ef49060240160206040518083038186803b15801561058c57600080fd5b505afa1580156105a0573d6000803e3d6000fd5b505050506040513d601f19601f820116820180604052508101906105c49190611ee9565b6106005760405162461bcd60e51b815260206004820152600d60248201526c1b9bdd081c5d585b1a599a5959609a1b604482015260640161052b565b60405163304d095d60e21b81526001600160a01b0382811660048301528681166024830152604482018590526064820184905285169063c1342574906084015b600060405180830381600087803b15801561065a57600080fd5b505af115801561066e573d6000803e3d6000fd5b505050505050505050565b6000546001600160a01b031633146106a35760405162461bcd60e51b815260040161052b90612220565b600254158015906106b657506002544210155b6106fb5760405162461bcd60e51b81526020600482015260166024820152751b5a59dc985d1a5bdb881d1a5b59481b9bdd081b595d60521b604482015260640161052b565b600354604080516316f0115b60e01b815290516000926001600160a01b0316916316f0115b916004808301926020929190829003018186803b15801561074057600080fd5b505afa158015610754573d6000803e3d6000fd5b505050506040513d601f19601f820116820180604052508101906107789190611e04565b60048054604051637b7acb2360e01b81526001600160a01b03808516938201939093529293501690637b7acb2390602401600060405180830381600087803b1580156107c357600080fd5b505af11580156107d7573d6000803e3d6000fd5b5050505050565b6000546001600160a01b031633146108085760405162461bcd60e51b815260040161052b90612220565b600480546001600160a01b0319166001600160a01b0392909216919091179055565b610833816117ab565b6103eb8383611389565b60048054604080516310017ab960e31b815281516001600160a01b03909316936000938493869363800bd5c8938181019391829003018186803b15801561088357600080fd5b505afa158015610897573d6000803e3d6000fd5b505050506040513d601f19601f820116820180604052508101906108bb919061213e565b9092509050338286106108e05760405162461bcd60e51b815260040161052b906121f6565b604051637b51e92760e11b81526001600160a01b0382811660048301527f0000000000000000000000000000000000000000000000000000000000000000169063f6a3d24e9060240160206040518083038186803b15801561094157600080fd5b505afa158015610955573d6000803e3d6000fd5b505050506040513d601f19601f820116820180604052508101906109799190611ee9565b6109955760405162461bcd60e51b815260040161052b90612257565b60405163cfb3e04160e01b81526001600160a01b0385169063cfb3e041906109c99084908a908a90899089906004016121c8565b600060405180830381600087803b1580156109e357600080fd5b505af11580156109f7573d6000803e3d6000fd5b50505050505050505050565b6000546001600160a01b03163314610a2d5760405162461bcd60e51b815260040161052b90612220565b6000816001600160a01b03166358c700a36040518163ffffffff1660e01b815260040160206040518083038186803b158015610a6857600080fd5b505afa158015610a7c573d6000803e3d6000fd5b505050506040513d601f19601f82011682018060405250810190610aa09190612054565b90506000826001600160a01b03166379a87b196040518163ffffffff1660e01b815260040160206040518083038186803b158015610add57600080fd5b505afa158015610af1573d6000803e3d6000fd5b505050506040513d601f19601f82011682018060405250810190610b159190611e04565b90508115801590610b265750814210155b610b6b5760405162461bcd60e51b81526020600482015260166024820152751b5a59dc985d1a5bdb881d1a5b59481b9bdd081b595d60521b604482015260640161052b565b6001600160a01b0381163014610bbc5760405162461bcd60e51b81526020600482015260166024820152751b5a59dc985d1a5bdb881ddc9bdb99c81d185c99d95d60521b604482015260640161052b565b6000836001600160a01b03166316f0115b6040518163ffffffff1660e01b815260040160206040518083038186803b158015610bf757600080fd5b505afa158015610c0b573d6000803e3d6000fd5b505050506040513d601f19601f82011682018060405250810190610c2f9190611e04565b600480546040516341746d6360e01b81526001600160a01b038085169382019390935292935016906341746d63906024015b600060405180830381600087803b158015610c7b57600080fd5b505af1158015610c8f573d6000803e3d6000fd5b5050505050505050565b610ca2816117ab565b6103eb8383610faf565b6000546001600160a01b03163314610cd65760405162461bcd60e51b815260040161052b90612220565b600180546001600160a01b0319166001600160a01b0392909216919091179055565b6000546001600160a01b03163314610d225760405162461bcd60e51b815260040161052b90612220565b600580546001600160a01b0319166001600160a01b0392909216919091179055565b6000546001600160a01b03163314610d6e5760405162461bcd60e51b815260040161052b90612220565b6001600160a01b038216610dbb5760405162461bcd60e51b815260206004820152601460248201527304d696772617461626c653a2074617267657420360641b604482015260640161052b565b60038110158015610dce575061016d8111155b610e265760405162461bcd60e51b815260206004820152602360248201527f4d696772617461626c653a20677261636544617973206d75737420626520332d60448201526233363560e81b606482015260840161052b565b610e338162015180612542565b610e3d904261241d565b6002819055600380546001600160a01b0319166001600160a01b038516908117909155604080519283523060208401528201527fe2a3b7ba8269be3ca7ba4627f844bb9abd978e9b05d290dc89d4b107f9e3dda79060600160405180910390a15050565b610eaa816117ab565b6103eb8383611084565b610ebd816117ab565b610ec6826103f0565b5050565b6001546001600160a01b03163314610f1b5760405162461bcd60e51b815260206004820152601460248201527313dddb98589b194e881b9bdd08185b1b1bddd95960621b604482015260640161052b565b600154600080546001600160a01b0319166001600160a01b03909216919091179055565b6000546001600160a01b03163314610f695760405162461bcd60e51b815260040161052b90612220565b60048054604051638ed1fc8f60e01b81529182018690526001600160a01b0385811660248401528481166044840152606483018490521690638ed1fc8f90608401610c61565b60048054604080516310017ab960e31b815281516001600160a01b03909316936000938493869363800bd5c8938181019391829003018186803b158015610ff557600080fd5b505afa158015611009573d6000803e3d6000fd5b505050506040513d601f19601f8201168201806040525081019061102d919061213e565b915091508185106110505760405162461bcd60e51b815260040161052b906121f6565b6040516348a25b6d60e11b81526001600160a01b03841690639144b6da9061064090339089908990889088906004016121c8565b60048054604080516310017ab960e31b815281516001600160a01b03909316936000938493869363800bd5c8938181019391829003018186803b1580156110ca57600080fd5b505afa1580156110de573d6000803e3d6000fd5b505050506040513d601f19601f82011682018060405250810190611102919061213e565b9092509050338286106111275760405162461bcd60e51b815260040161052b906121f6565b604051637b51e92760e11b81526001600160a01b0382811660048301527f0000000000000000000000000000000000000000000000000000000000000000169063f6a3d24e9060240160206040518083038186803b15801561118857600080fd5b505afa15801561119c573d6000803e3d6000fd5b505050506040513d601f19601f820116820180604052508101906111c09190611ee9565b6111f55760405162461bcd60e51b815260206004820152600660248201526506e6f74206c760d41b604482015260640161052b565b6040516309c9404160e11b81526001600160a01b038516906313928082906109c99084908a908a90899089906004016121c8565b6000546001600160a01b031633146112535760405162461bcd60e51b815260040161052b90612220565b6112bd60405180610120016040528060006001600160a01b0316815260200160006001600160a01b0316815260200160006001600160a01b031681526020016000815260200160008152602001600081526020016000815260200160008152602001600081525090565b6001600160a01b03808616808352858216602080850191909152918516604080850191909152805163313ce56760e01b81529051919263313ce56792600480840193829003018186803b15801561131357600080fd5b505afa158015611327573d6000803e3d6000fd5b505050506040513d601f19601f8201168201806040525081019061134b9190612161565b60ff16606082015260808101829052600480546040516373186e3160e01b81526001600160a01b03909116916373186e319161064091859101612282565b60048054604080516310017ab960e31b815281516001600160a01b0390931693600093859363800bd5c8938084019391929190829003018186803b1580156113d057600080fd5b505afa1580156113e4573d6000803e3d6000fd5b505050506040513d601f19601f82011682018060405250810190611408919061213e565b50905080841061142a5760405162461bcd60e51b815260040161052b906121f6565b6040516311440fdd60e21b815233600482015260248101859052604481018490526001600160a01b038316906345103f7490606401600060405180830381600087803b15801561147957600080fd5b505af115801561148d573d6000803e3d6000fd5b50505050836000146114a2576114a2846119da565b50505050565b6000546001600160a01b031633146114d25760405162461bcd60e51b815260040161052b90612220565b600480546040516373f9773760e11b81529182018690526001600160a01b0385811660248401526044830185905260648301849052169063e7f2ee6e90608401610c61565b611520816117ab565b6103eb838361083d565b60048054604080516310017ab960e31b815281516001600160a01b03909316936000938493869363800bd5c8938181019391829003018186803b15801561157057600080fd5b505afa158015611584573d6000803e3d6000fd5b505050506040513d601f19601f820116820180604052508101906115a8919061213e565b9092509050338186106115f05760405162461bcd60e51b815260206004820152601060248201526f1a5b9d985b1a59081cde5b589bdb125960821b604482015260640161052b565b604051637b51e92760e11b81526001600160a01b0382811660048301527f0000000000000000000000000000000000000000000000000000000000000000169063f6a3d24e9060240160206040518083038186803b15801561165157600080fd5b505afa158015611665573d6000803e3d6000fd5b505050506040513d601f19601f820116820180604052508101906116899190611ee9565b6116a55760405162461bcd60e51b815260040161052b90612257565b60405163067d4dcd60e41b81526001600160a01b038516906367d4dcd0906109c99084908a908a90899089906004016121c8565b6000546001600160a01b031633146117035760405162461bcd60e51b815260040161052b90612220565b61175b6040518061012001604052806060815260200160006001600160a01b03168152602001600081526020016000815260200160008152602001600081526020016000815260200160008152602001600081525090565b8581526001600160a01b0380861660208301526040808301869052606083018590526080830184905260048054915163b50ac1cb60e01b8152919092169163b50ac1cb916109c99185910161230f565b60005b8151811015610ec65760045482516000916001600160a01b0316906341df7602908590859081106117ef57634e487b7160e01b600052603260045260246000fd5b6020026020010151600001516040518263ffffffff1660e01b815260040161181991815260200190565b60206040518083038186803b15801561183157600080fd5b505afa158015611845573d6000803e3d6000fd5b505050506040513d601f19601f820116820180604052508101906118699190611e04565b9050806001600160a01b03166357c9739884848151811061189a57634e487b7160e01b600052603260045260246000fd5b6020026020010151602001518585815181106118c657634e487b7160e01b600052603260045260246000fd5b6020026020010151604001518686815181106118f257634e487b7160e01b600052603260045260246000fd5b60200260200101516060015187878151811061191e57634e487b7160e01b600052603260045260246000fd5b60200260200101516080015188888151811061194a57634e487b7160e01b600052603260045260246000fd5b602090810291909101015160a001516040516001600160e01b031960e088901b1681526004810195909552602485019390935260ff90911660448401526064830152608482015260a401600060405180830381600087803b1580156119ae57600080fd5b505af11580156119c2573d6000803e3d6000fd5b505050505080806119d290612578565b9150506117ae565b6004805460405163c41e575f60e01b81529182018390526000916001600160a01b039091169063c41e575f906024016101206040518083038186803b158015611a2257600080fd5b505afa158015611a36573d6000803e3d6000fd5b505050506040513d601f19601f82011682018060405250810190611a5a9190611fc5565b90506000816000015190506000611b6c826001600160a01b031663313ce5676040518163ffffffff1660e01b815260040160206040518083038186803b158015611aa357600080fd5b505afa158015611ab7573d6000803e3d6000fd5b505050506040513d601f19601f82011682018060405250810190611adb9190612161565b600480546040516370a0823160e01b81526001600160a01b039182169281019290925260ff9290921691601291908616906370a082319060240160206040518083038186803b158015611b2d57600080fd5b505afa158015611b41573d6000803e3d6000fd5b505050506040513d601f19601f82011682018060405250810190611b659190612054565b9190611c73565b90506000611b7d8460c00151611cb5565b611b879083612561565b9050600084602001516001600160a01b031663f14821046040518163ffffffff1660e01b815260040160206040518083038186803b158015611bc857600080fd5b505afa158015611bdc573d6000803e3d6000fd5b505050506040513d601f19601f82011682018060405250810190611c009190612054565b9050808210611c6b5760405162461bcd60e51b815260206004820152603160248201527f6d617267696e20696e2062546f6b656e582065786365656473207377617070656044820152701c881b1a5c5d5a591a5d1e481b1a5b5a5d607a1b606482015260840161052b565b505050505050565b6000818314611cab57611c8783600a612498565b611c9283600a612498565b611c9c9086612542565b611ca69190612435565b611cad565b835b949350505050565b600080821215611ced5760405162461bcd60e51b815260206004820152600360248201526249554f60e81b604482015260640161052b565b5090565b8035611cfc816125bf565b919050565b8051611cfc816125bf565b600082601f830112611d1c578081fd5b8135602067ffffffffffffffff821115611d3857611d386125a9565b611d46818360051b016123ec565b8281528181019085830160c080860288018501891015611d64578687fd5b865b86811015611dd35781838b031215611d7c578788fd5b611d8461239f565b83358152868401358782015260408085013590820152606080850135611da9816125d7565b908201526080848101359082015260a0808501359082015285529385019391810191600101611d66565b509198975050505050505050565b600060208284031215611df2578081fd5b8135611dfd816125bf565b9392505050565b600060208284031215611e15578081fd5b8151611dfd816125bf565b60008060008060808587031215611e35578283fd5b8435611e40816125bf565b93506020850135611e50816125bf565b92506040850135611e60816125bf565b9396929550929360600135925050565b60008060408385031215611e82578182fd5b8235611e8d816125bf565b9150602083013567ffffffffffffffff811115611ea8578182fd5b611eb485828601611d0c565b9150509250929050565b60008060408385031215611ed0578182fd5b8235611edb816125bf565b946020939093013593505050565b600060208284031215611efa578081fd5b81518015158114611dfd578182fd5b600080600080600060a08688031215611f20578081fd5b853567ffffffffffffffff80821115611f37578283fd5b818801915088601f830112611f4a578283fd5b8135602082821115611f5e57611f5e6125a9565b611f70601f8301601f191682016123ec565b92508183528a81838601011115611f85578485fd5b818185018285013784818385010152829850611fa2818b01611cf1565b989b989a5050505060408701359660608101359660809091013595509350505050565b60006101208284031215611fd7578081fd5b611fdf6123c8565b611fe883611d01565b8152611ff660208401611d01565b602082015261200760408401611d01565b6040820152606083015160608201526080830151608082015260a083015160a082015260c083015160c082015260e083015160e08201526101008084015181830152508091505092915050565b600060208284031215612065578081fd5b5051919050565b60008060008060808587031215612081578182fd5b843593506020850135611e50816125bf565b600080600080608085870312156120a8578182fd5b8435935060208501356120ba816125bf565b93969395505050506040820135916060013590565b600080604083850312156120e1578182fd5b50508035926020909101359150565b600080600060608486031215612104578081fd5b8335925060208401359150604084013567ffffffffffffffff811115612128578182fd5b61213486828701611d0c565b9150509250925092565b60008060408385031215612150578182fd5b505080516020909101519092909150565b600060208284031215612172578081fd5b8151611dfd816125d7565b60008151808452815b818110156121a257602081850181015186830182015201612186565b818111156121b35782602083870101525b50601f01601f19169290920160200192915050565b6001600160a01b03959095168552602085019390935260408401919091526060830152608082015260a00190565b60208082526010908201526f1a5b9d985b1a590818951bdad95b925960821b604082015260600190565b60208082526018908201527f4f776e61626c653a206f6e6c7920636f6e74726f6c6c65720000000000000000604082015260600190565b6020808252601190820152706e6f207472616465202f206e6f20706f7360781b604082015260600190565b81516001600160a01b031681526020808301516101208301916122af908401826001600160a01b03169052565b5060408301516122ca60408401826001600160a01b03169052565b50606083015160608301526080830151608083015260a083015160a083015260c083015160c083015260e083015160e083015261010080840151818401525092915050565b602081526000825161012080602085015261232e61014085018361217d565b9150602085015161234a60408601826001600160a01b03169052565b506040850151606085015260608501516080850152608085015160a085015260a085015160c085015260c085015160e085015260e0850151610100818187015280870151838701525050508091505092915050565b60405160c0810167ffffffffffffffff811182821017156123c2576123c26125a9565b60405290565b604051610120810167ffffffffffffffff811182821017156123c2576123c26125a9565b604051601f8201601f1916810167ffffffffffffffff81118282101715612415576124156125a9565b604052919050565b6000821982111561243057612430612593565b500190565b60008261245057634e487b7160e01b81526012600452602481fd5b500490565b600181815b8085111561249057816000190482111561247657612476612593565b8085161561248357918102915b93841c939080029061245a565b509250929050565b6000611dfd83836000826124ae5750600161253c565b816124bb5750600061253c565b81600181146124d157600281146124db576124f7565b600191505061253c565b60ff8411156124ec576124ec612593565b50506001821b61253c565b5060208310610133831016604e8410600b841016171561251a575081810a61253c565b6125248383612455565b806000190482111561253857612538612593565b0290505b92915050565b600081600019048311821515161561255c5761255c612593565b500290565b60008282101561257357612573612593565b500390565b600060001982141561258c5761258c612593565b5060010190565b634e487b7160e01b600052601160045260246000fd5b634e487b7160e01b600052604160045260246000fd5b6001600160a01b03811681146125d457600080fd5b50565b60ff811681146125d457600080fdfea2646970667358221220602eabc7bc5ac675bf2e17c34a8791fb3e65dc07d654013da72def3d8685759e64736f6c63430008040033",
  "linkReferences": {},
  "deployedLinkReferences": {}
}